:100000000C9434000C9451000C9451000C94510049
:100010000C9451000C9451000C9451000C9451001C
:100020000C9451000C9451000C9451000C946D00F0
:100030000C9451000C9451000C9451000C945100FC
:100040000C9451000C9451000C9451000C945100EC
:100050000C9451000C9451000C9451000C945100DC
:100060000C9451000C94510011241FBECFEFD4E02A
:10007000DEBFCDBF11E0A0E0B1E0E2E0F1E002C000
:1000800005900D92A030B107D9F711E0A0E0B1E0E2
:1000900001C01D92A030B107E1F70E9453000C94FB
:1000A0007F000C940000F89480918100836080931D
:1000B000810088E09DE3909389008093880080917F
:1000C000810088608093810080916F0082608093BE
:1000D0006F007894509A589AFFCF1F920F920FB6E4
:1000E0000F9211248F939F938BB191E089278BB945
:1000F0009F918F910F900FBE0F901F901895F894BD
:02010000FFCF2F
:00000001FF
